{
  "contractName": "TestUniswap",
  "abi": [
    {
      "inputs": [
        {
          "internalType": "address",
          "name": "tokenIn",
          "type": "address"
        },
        {
          "internalType": "address",
          "name": "tokenOut",
          "type": "address"
        },
        {
          "internalType": "uint256",
          "name": "amountIn",
          "type": "uint256"
        },
        {
          "internalType": "uint256",
          "name": "amountOutMin",
          "type": "uint256"
        },
        {
          "internalType": "address",
          "name": "to",
          "type": "address"
        }
      ],
      "name": "swap",
      "outputs": [],
      "stateMutability": "nonpayable",
      "type": "function"
    },
    {
      "inputs": [
        {
          "internalType": "address",
          "name": "tokenIn",
          "type": "address"
        },
        {
          "internalType": "address",
          "name": "tokenOut",
          "type": "address"
        },
        {
          "internalType": "uint256",
          "name": "amountIn",
          "type": "uint256"
        }
      ],
      "name": "getAmountOutMin",
      "outputs": [
        {
          "internalType": "uint256",
          "name": "",
          "type": "uint256"
        }
      ],
      "stateMutability": "view",
      "type": "function",
      "constant": true
    },
    {
      "inputs": [
        {
          "internalType": "address",
          "name": "tokenOut",
          "type": "address"
        },
        {
          "internalType": "uint256",
          "name": "amountOutMin",
          "type": "uint256"
        },
        {
          "internalType": "address",
          "name": "to",
          "type": "address"
        }
      ],
      "name": "swapFromETHToToken",
      "outputs": [],
      "stateMutability": "payable",
      "type": "function",
      "payable": true
    },
    {
      "inputs": [
        {
          "internalType": "address",
          "name": "tokenIn",
          "type": "address"
        },
        {
          "internalType": "uint256",
          "name": "amountIn",
          "type": "uint256"
        },
        {
          "internalType": "uint256",
          "name": "amountOutMin",
          "type": "uint256"
        },
        {
          "internalType": "address",
          "name": "to",
          "type": "address"
        }
      ],
      "name": "swapFromTokenToETH",
      "outputs": [],
      "stateMutability": "nonpayable",
      "type": "function"
    }
  ],
  "bytecode": "0x608060405234801561001057600080fd5b5061159e806100206000396000f3fe60806040526004361061003f5760003560e01c80633c50eec1146100445780638a5d11ee14610081578063d5bcb9b5146100aa578063f1f3dc47146100d3575b600080fd5b34801561005057600080fd5b5061006b60048036038101906100669190610f05565b6100ef565b6040516100789190610f67565b60405180910390f35b34801561008d57600080fd5b506100a860048036038101906100a39190610f82565b61048e565b005b3480156100b657600080fd5b506100d160048036038101906100cc9190610fe9565b610747565b005b6100ed60048036038101906100e89190611064565b610bd2565b005b6000606073c02aaa39b223fe8d0a0e5c4f27ead9083c756cc273ffffffffffffffffffffffffffffffffffffffff168573ffffffffffffffffffffffffffffffffffffffff161480610180575073c02aaa39b223fe8d0a0e5c4f27ead9083c756cc273ffffffffffffffffffffffffffffffffffffffff168473ffffffffffffffffffffffffffffffffffffffff16145b1561027457600267ffffffffffffffff8111156101a05761019f6110b7565b5b6040519080825280602002602001820160405280156101ce5781602001602082028036833780820191505090505b50905084816000815181106101e6576101e56110e6565b5b602002602001019073ffffffffffffffffffffffffffffffffffffffff16908173ffffffffffffffffffffffffffffffffffffffff16815250508381600181518110610235576102346110e6565b5b602002602001019073ffffffffffffffffffffffffffffffffffffffff16908173ffffffffffffffffffffffffffffffffffffffff16815250506103c2565b600367ffffffffffffffff81111561028f5761028e6110b7565b5b6040519080825280602002602001820160405280156102bd5781602001602082028036833780820191505090505b50905084816000815181106102d5576102d46110e6565b5b602002602001019073ffffffffffffffffffffffffffffffffffffffff16908173ffffffffffffffffffffffffffffffffffffffff168152505073c02aaa39b223fe8d0a0e5c4f27ead9083c756cc281600181518110610338576103376110e6565b5b602002602001019073ffffffffffffffffffffffffffffffffffffffff16908173ffffffffffffffffffffffffffffffffffffffff16815250508381600281518110610387576103866110e6565b5b602002602001019073ffffffffffffffffffffffffffffffffffffffff16908173ffffffffffffffffffffffffffffffffffffffff16815250505b6000737a250d5630b4cf539739df2c5dacb4c659f2488d73ffffffffffffffffffffffffffffffffffffffff1663d06ca61f85846040518363ffffffff1660e01b81526004016104139291906111d3565b600060405180830381865afa158015610430573d6000803e3d6000fd5b505050506040513d6000823e3d601f19601f820116820180604052508101906104599190611342565b9050806001835161046a91906113ba565b8151811061047b5761047a6110e6565b5b6020026020010151925050509392505050565b8373ffffffffffffffffffffffffffffffffffffffff166323b872dd3330866040518463ffffffff1660e01b81526004016104cb939291906113fd565b6020604051808303816000875af11580156104ea573d6000803e3d6000fd5b505050506040513d601f19601f8201168201806040525081019061050e919061146c565b508373ffffffffffffffffffffffffffffffffffffffff1663095ea7b3737a250d5630b4cf539739df2c5dacb4c659f2488d856040518363ffffffff1660e01b815260040161055e929190611499565b6020604051808303816000875af115801561057d573d6000803e3d6000fd5b505050506040513d601f19601f820116820180604052508101906105a1919061146c565b506060600267ffffffffffffffff8111156105bf576105be6110b7565b5b6040519080825280602002602001820160405280156105ed5781602001602082028036833780820191505090505b5090508481600081518110610605576106046110e6565b5b602002602001019073ffffffffffffffffffffffffffffffffffffffff16908173ffffffffffffffffffffffffffffffffffffffff168152505073c02aaa39b223fe8d0a0e5c4f27ead9083c756cc281600181518110610668576106676110e6565b5b602002602001019073ffffffffffffffffffffffffffffffffffffffff16908173ffffffffffffffffffffffffffffffffffffffff1681525050737a250d5630b4cf539739df2c5dacb4c659f2488d73ffffffffffffffffffffffffffffffffffffffff166318cbafe585858486426040518663ffffffff1660e01b81526004016106f79594939291906114c2565b6000604051808303816000875af1158015610716573d6000803e3d6000fd5b505050506040513d6000823e3d601f19601f8201168201806040525081019061073f9190611342565b505050505050565b8473ffffffffffffffffffffffffffffffffffffffff166323b872dd3330866040518463ffffffff1660e01b8152600401610784939291906113fd565b6020604051808303816000875af11580156107a3573d6000803e3d6000fd5b505050506040513d601f19601f820116820180604052508101906107c7919061146c565b508473ffffffffffffffffffffffffffffffffffffffff1663095ea7b3737a250d5630b4cf539739df2c5dacb4c659f2488d856040518363ffffffff1660e01b8152600401610817929190611499565b6020604051808303816000875af1158015610836573d6000803e3d6000fd5b505050506040513d601f19601f8201168201806040525081019061085a919061146c565b50606073c02aaa39b223fe8d0a0e5c4f27ead9083c756cc273ffffffffffffffffffffffffffffffffffffffff168673ffffffffffffffffffffffffffffffffffffffff1614806108ea575073c02aaa39b223fe8d0a0e5c4f27ead9083c756cc273ffffffffffffffffffffffffffffffffffffffff168573ffffffffffffffffffffffffffffffffffffffff16145b156109de57600267ffffffffffffffff81111561090a576109096110b7565b5b6040519080825280602002602001820160405280156109385781602001602082028036833780820191505090505b50905085816000815181106109505761094f6110e6565b5b602002602001019073ffffffffffffffffffffffffffffffffffffffff16908173ffffffffffffffffffffffffffffffffffffffff1681525050848160018151811061099f5761099e6110e6565b5b602002602001019073ffffffffffffffffffffffffffffffffffffffff16908173ffffffffffffffffffffffffffffffffffffffff1681525050610b2c565b600367ffffffffffffffff8111156109f9576109f86110b7565b5b604051908082528060200260200182016040528015610a275781602001602082028036833780820191505090505b5090508581600081518110610a3f57610a3e6110e6565b5b602002602001019073ffffffffffffffffffffffffffffffffffffffff16908173ffffffffffffffffffffffffffffffffffffffff168152505073c02aaa39b223fe8d0a0e5c4f27ead9083c756cc281600181518110610aa257610aa16110e6565b5b602002602001019073ffffffffffffffffffffffffffffffffffffffff16908173ffffffffffffffffffffffffffffffffffffffff16815250508481600281518110610af157610af06110e6565b5b602002602001019073ffffffffffffffffffffffffffffffffffffffff16908173ffffffffffffffffffffffffffffffffffffffff16815250505b737a250d5630b4cf539739df2c5dacb4c659f2488d73ffffffffffffffffffffffffffffffffffffffff166338ed173985858486426040518663ffffffff1660e01b8152600401610b819594939291906114c2565b6000604051808303816000875af1158015610ba0573d6000803e3d6000fd5b505050506040513d6000823e3d601f19601f82011682018060405250810190610bc99190611342565b50505050505050565b606073c02aaa39b223fe8d0a0e5c4f27ead9083c756cc273ffffffffffffffffffffffffffffffffffffffff168473ffffffffffffffffffffffffffffffffffffffff1603610cbb57600167ffffffffffffffff811115610c3657610c356110b7565b5b604051908082528060200260200182016040528015610c645781602001602082028036833780820191505090505b5090508381600081518110610c7c57610c7b6110e6565b5b602002602001019073ffffffffffffffffffffffffffffffffffffffff16908173ffffffffffffffffffffffffffffffffffffffff1681525050610dba565b600267ffffffffffffffff811115610cd657610cd56110b7565b5b604051908082528060200260200182016040528015610d045781602001602082028036833780820191505090505b50905073c02aaa39b223fe8d0a0e5c4f27ead9083c756cc281600081518110610d3057610d2f6110e6565b5b602002602001019073ffffffffffffffffffffffffffffffffffffffff16908173ffffffffffffffffffffffffffffffffffffffff16815250508381600181518110610d7f57610d7e6110e6565b5b602002602001019073ffffffffffffffffffffffffffffffffffffffff16908173ffffffffffffffffffffffffffffffffffffffff16815250505b737a250d5630b4cf539739df2c5dacb4c659f2488d73ffffffffffffffffffffffffffffffffffffffff16637ff36ab534858486426040518663ffffffff1660e01b8152600401610e0e949392919061151c565b60006040518083038185885af1158015610e2c573d6000803e3d6000fd5b50505050506040513d6000823e3d601f19601f82011682018060405250810190610e569190611342565b5050505050565b6000604051905090565b600080fd5b600080fd5b600073ffffffffffffffffffffffffffffffffffffffff82169050919050565b6000610e9c82610e71565b9050919050565b610eac81610e91565b8114610eb757600080fd5b50565b600081359050610ec981610ea3565b92915050565b6000819050919050565b610ee281610ecf565b8114610eed57600080fd5b50565b600081359050610eff81610ed9565b92915050565b600080600060608486031215610f1e57610f1d610e67565b5b6000610f2c86828701610eba565b9350506020610f3d86828701610eba565b9250506040610f4e86828701610ef0565b9150509250925092565b610f6181610ecf565b82525050565b6000602082019050610f7c6000830184610f58565b92915050565b60008060008060808587031215610f9c57610f9b610e67565b5b6000610faa87828801610eba565b9450506020610fbb87828801610ef0565b9350506040610fcc87828801610ef0565b9250506060610fdd87828801610eba565b91505092959194509250565b600080600080600060a0868803121561100557611004610e67565b5b600061101388828901610eba565b955050602061102488828901610eba565b945050604061103588828901610ef0565b935050606061104688828901610ef0565b925050608061105788828901610eba565b9150509295509295909350565b60008060006060848603121561107d5761107c610e67565b5b600061108b86828701610eba565b935050602061109c86828701610ef0565b92505060406110ad86828701610eba565b9150509250925092565b7f4e487b7100000000000000000000000000000000000000000000000000000000600052604160045260246000fd5b7f4e487b7100000000000000000000000000000000000000000000000000000000600052603260045260246000fd5b600081519050919050565b600082825260208201905092915050565b6000819050602082019050919050565b61114a81610e91565b82525050565b600061115c8383611141565b60208301905092915050565b6000602082019050919050565b600061118082611115565b61118a8185611120565b935061119583611131565b8060005b838110156111c65781516111ad8882611150565b97506111b883611168565b925050600181019050611199565b5085935050505092915050565b60006040820190506111e86000830185610f58565b81810360208301526111fa8184611175565b90509392505050565b600080fd5b6000601f19601f8301169050919050565b61122282611208565b810181811067ffffffffffffffff82111715611241576112406110b7565b5b80604052505050565b6000611254610e5d565b90506112608282611219565b919050565b600067ffffffffffffffff8211156112805761127f6110b7565b5b602082029050602081019050919050565b600080fd5b6000815190506112a581610ed9565b92915050565b60006112be6112b984611265565b61124a565b905080838252602082019050602084028301858111156112e1576112e0611291565b5b835b8181101561130a57806112f68882611296565b8452602084019350506020810190506112e3565b5050509392505050565b600082601f83011261132957611328611203565b5b81516113398482602086016112ab565b91505092915050565b60006020828403121561135857611357610e67565b5b600082015167ffffffffffffffff81111561137657611375610e6c565b5b61138284828501611314565b91505092915050565b7f4e487b7100000000000000000000000000000000000000000000000000000000600052601160045260246000fd5b60006113c582610ecf565b91506113d083610ecf565b9250828210156113e3576113e261138b565b5b828203905092915050565b6113f781610e91565b82525050565b600060608201905061141260008301866113ee565b61141f60208301856113ee565b61142c6040830184610f58565b949350505050565b60008115159050919050565b61144981611434565b811461145457600080fd5b50565b60008151905061146681611440565b92915050565b60006020828403121561148257611481610e67565b5b600061149084828501611457565b91505092915050565b60006040820190506114ae60008301856113ee565b6114bb6020830184610f58565b9392505050565b600060a0820190506114d76000830188610f58565b6114e46020830187610f58565b81810360408301526114f68186611175565b905061150560608301856113ee565b6115126080830184610f58565b9695505050505050565b60006080820190506115316000830187610f58565b81810360208301526115438186611175565b905061155260408301856113ee565b61155f6060830184610f58565b9594505050505056fea2646970667358221220ed0ab645e0ce1d214ddc45280ef713917f16a764af3af4489bae437ea956bbda64736f6c634300080f0033",
  "immutableReferences": {},
  "source": "// SPDX-License-Identifier: MIT\r\npragma solidity ^0.8.3;\r\nimport \"./interfaces/Uniswap.sol\";\r\nimport \"./interfaces/IERC20.sol\";\r\n\r\ncontract TestUniswap {\r\n    address private constant UNISWAP_V2_ROUTER=0x7a250d5630B4cF539739dF2C5dAcb4c659F2488D; // to trade\r\n    address private constant WETH = 0xC02aaA39b223FE8D0A0e5C4F27eAD9083C756Cc2;\r\n\r\n    function swap(\r\n        address tokenIn, //token trading in\r\n        address tokenOut, //token trading out\r\n        uint256 amountIn, //amout of token trading in\r\n        uint256 amountOutMin, //min of token we want trade out\r\n        address to //address sending the output token to\r\n    ) external {\r\n        IERC20(tokenIn).transferFrom(msg.sender, address(this), amountIn); \r\n        IERC20(tokenIn).approve(UNISWAP_V2_ROUTER, amountIn); \r\n\r\n        address[] memory path;\r\n       if (tokenIn == WETH || tokenOut == WETH) {\r\n      path = new address[](2);\r\n      path[0] = tokenIn;\r\n      path[1] = tokenOut;\r\n    } else {\r\n      path = new address[](3);\r\n      path[0] = tokenIn;\r\n      path[1] = WETH;\r\n      path[2] = tokenOut;\r\n    }\r\n\r\n        IUniswapV2RRouter(UNISWAP_V2_ROUTER).swapExactTokensForTokens(\r\n            amountIn,\r\n           amountOutMin,\r\n           path,\r\n          to,\r\n         block.timestamp\r\n      );\r\n    }\r\n    function getAmountOutMin(address tokenIn, address tokenOut, uint256 amountIn) public view returns(uint256){\r\n        address[] memory path;\r\n\r\n        \r\n        if(tokenIn==WETH||tokenOut==WETH){\r\n            path=new address[](2);\r\n            path[0]=tokenIn;\r\n            path[1]=tokenOut;\r\n \r\n        }\r\n        else{\r\n            path=new address[](3);\r\n            path[0]=tokenIn;\r\n            path[1]=WETH;\r\n            path[2]=tokenOut;\r\n\r\n        }\r\n        uint[] memory amountOutMins = IUniswapV2RRouter(UNISWAP_V2_ROUTER).getAmountsOut(amountIn, path);\r\n        return amountOutMins[path.length-1]; \r\n    }\r\n    function swapFromETHToToken(\r\n        address tokenOut, //token trading out\r\n        uint256 amountOutMin, //min of token we want trade out\r\n        address to ) external payable{\r\n            address[] memory path;\r\n       if(tokenOut==WETH){\r\n            path=new address[](1);\r\n            path[0]=tokenOut;\r\n \r\n        }\r\n        else{\r\n            path=new address[](2);\r\n            path[0]=WETH;\r\n            path[1]=tokenOut;\r\n\r\n        }\r\n\r\n            IUniswapV2RRouter(UNISWAP_V2_ROUTER).swapExactETHForTokens{value: msg.value}(amountOutMin,path,to,block.timestamp);\r\n        }\r\n    function swapFromTokenToETH(address tokenIn,\r\n        uint256 amountIn,\r\n        uint256 amountOutMin,\r\n        address to) external{\r\n            IERC20(tokenIn).transferFrom(msg.sender,address(this),amountIn);\r\n            IERC20(tokenIn).approve(UNISWAP_V2_ROUTER,amountIn);\r\n            address[] memory path;\r\n              path = new address[](2);\r\n        path[0] = tokenIn;\r\n        path[1] = WETH;\r\n        IUniswapV2RRouter(UNISWAP_V2_ROUTER).swapExactTokensForETH(amountIn,amountOutMin,path, to, block.timestamp);\r\n            }\r\n  \r\n}\r\n",
  "sourcePath": "/home/hienn/Downloads/contract/contracts/TestUniswap.sol",
  "compiler": {
    "name": "solc",
    "version": "0.8.15+commit.e14f2714.Emscripten.clang"
  },
  "schemaVersion": "3.4.8",
  "updatedAt": "2022-07-10T19:28:18.421Z",
  "networkType": "ethereum",
  "devdoc": {
    "kind": "dev",
    "methods": {},
    "version": 1
  },
  "userdoc": {
    "kind": "user",
    "methods": {},
    "version": 1
  }
}